{
  "contractName": "HomeAMB",
  "abi": [
    {
      "constant": true,
      "inputs": [],
      "name": "transactionHash",
      "outputs": [
        {
          "name": "",
          "type": "bytes32"
        }
      ],
      "payable": false,
      "stateMutability": "view",
      "type": "function"
    },
    {
      "constant": true,
      "inputs": [
        {
          "name": "_message",
          "type": "bytes32"
        }
      ],
      "name": "numMessagesSigned",
      "outputs": [
        {
          "name": "",
          "type": "uint256"
        }
      ],
      "payable": false,
      "stateMutability": "view",
      "type": "function"
    },
    {
      "constant": false,
      "inputs": [
        {
          "name": "_messageId",
          "type": "bytes32"
        },
        {
          "name": "_status",
          "type": "bool"
        },
        {
          "name": "_result",
          "type": "bytes"
        }
      ],
      "name": "confirmInformation",
      "outputs": [],
      "payable": false,
      "stateMutability": "nonpayable",
      "type": "function"
    },
    {
      "constant": true,
      "inputs": [],
      "name": "sourceChainId",
      "outputs": [
        {
          "name": "",
          "type": "uint256"
        }
      ],
      "payable": false,
      "stateMutability": "view",
      "type": "function"
    },
    {
      "constant": true,
      "inputs": [
        {
          "name": "_hash",
          "type": "bytes32"
        },
        {
          "name": "_index",
          "type": "uint256"
        }
      ],
      "name": "signature",
      "outputs": [
        {
          "name": "",
          "type": "bytes"
        }
      ],
      "payable": false,
      "stateMutability": "view",
      "type": "function"
    },
    {
      "constant": false,
      "inputs": [
        {
          "name": "_sourceChainId",
          "type": "uint256"
        },
        {
          "name": "_destinationChainId",
          "type": "uint256"
        },
        {
          "name": "_validatorContract",
          "type": "address"
        },
        {
          "name": "_maxGasPerTx",
          "type": "uint256"
        },
        {
          "name": "_gasPrice",
          "type": "uint256"
        },
        {
          "name": "_requiredBlockConfirmations",
          "type": "uint256"
        },
        {
          "name": "_owner",
          "type": "address"
        }
      ],
      "name": "initialize",
      "outputs": [
        {
          "name": "",
          "type": "bool"
        }
      ],
      "payable": false,
      "stateMutability": "nonpayable",
      "type": "function"
    },
    {
      "constant": true,
      "inputs": [],
      "name": "isInitialized",
      "outputs": [
        {
          "name": "",
          "type": "bool"
        }
      ],
      "payable": false,
      "stateMutability": "view",
      "type": "function"
    },
    {
      "constant": true,
      "inputs": [],
      "name": "requiredBlockConfirmations",
      "outputs": [
        {
          "name": "",
          "type": "uint256"
        }
      ],
      "payable": false,
      "stateMutability": "view",
      "type": "function"
    },
    {
      "constant": true,
      "inputs": [
        {
          "name": "_messageId",
          "type": "bytes32"
        }
      ],
      "name": "failedMessageReceiver",
      "outputs": [
        {
          "name": "",
          "type": "address"
        }
      ],
      "payable": false,
      "stateMutability": "view",
      "type": "function"
    },
    {
      "constant": true,
      "inputs": [],
      "name": "getBridgeMode",
      "outputs": [
        {
          "name": "_data",
          "type": "bytes4"
        }
      ],
      "payable": false,
      "stateMutability": "pure",
      "type": "function"
    },
    {
      "constant": false,
      "inputs": [
        {
          "name": "_sourceChainId",
          "type": "uint256"
        },
        {
          "name": "_destinationChainId",
          "type": "uint256"
        }
      ],
      "name": "setChainIds",
      "outputs": [],
      "payable": false,
      "stateMutability": "nonpayable",
      "type": "function"
    },
    {
      "constant": true,
      "inputs": [
        {
          "name": "_hash",
          "type": "bytes32"
        }
      ],
      "name": "message",
      "outputs": [
        {
          "name": "",
          "type": "bytes"
        }
      ],
      "payable": false,
      "stateMutability": "view",
      "type": "function"
    },
    {
      "constant": true,
      "inputs": [
        {
          "name": "_messageId",
          "type": "bytes32"
        }
      ],
      "name": "failedMessageSender",
      "outputs": [
        {
          "name": "",
          "type": "address"
        }
      ],
      "payable": false,
      "stateMutability": "view",
      "type": "function"
    },
    {
      "constant": true,
      "inputs": [],
      "name": "allowReentrantRequests",
      "outputs": [
        {
          "name": "",
          "type": "bool"
        }
      ],
      "payable": false,
      "stateMutability": "view",
      "type": "function"
    },
    {
      "constant": false,
      "inputs": [
        {
          "name": "_requestSelector",
          "type": "bytes32"
        },
        {
          "name": "_data",
          "type": "bytes"
        }
      ],
      "name": "requireToGetInformation",
      "outputs": [
        {
          "name": "",
          "type": "bytes32"
        }
      ],
      "payable": false,
      "stateMutability": "nonpayable",
      "type": "function"
    },
    {
      "constant": false,
      "inputs": [
        {
          "name": "signature",
          "type": "bytes"
        },
        {
          "name": "message",
          "type": "bytes"
        }
      ],
      "name": "submitSignature",
      "outputs": [],
      "payable": false,
      "stateMutability": "nonpayable",
      "type": "function"
    },
    {
      "constant": true,
      "inputs": [],
      "name": "messageId",
      "outputs": [
        {
          "name": "id",
          "type": "bytes32"
        }
      ],
      "payable": false,
      "stateMutability": "view",
      "type": "function"
    },
    {
      "constant": false,
      "inputs": [
        {
          "name": "_token",
          "type": "address"
        },
        {
          "name": "_to",
          "type": "address"
        }
      ],
      "name": "claimTokens",
      "outputs": [],
      "payable": false,
      "stateMutability": "nonpayable",
      "type": "function"
    },
    {
      "constant": true,
      "inputs": [
        {
          "name": "_hash",
          "type": "bytes32"
        }
      ],
      "name": "numAffirmationsSigned",
      "outputs": [
        {
          "name": "",
          "type": "uint256"
        }
      ],
      "payable": false,
      "stateMutability": "view",
      "type": "function"
    },
    {
      "constant": true,
      "inputs": [
        {
          "name": "_hash",
          "type": "bytes32"
        }
      ],
      "name": "affirmationsSigned",
      "outputs": [
        {
          "name": "",
          "type": "bool"
        }
      ],
      "payable": false,
      "stateMutability": "view",
      "type": "function"
    },
    {
      "constant": false,
      "inputs": [
        {
          "name": "_maxGasPerTx",
          "type": "uint256"
        }
      ],
      "name": "setMaxGasPerTx",
      "outputs": [],
      "payable": false,
      "stateMutability": "nonpayable",
      "type": "function"
    },
    {
      "constant": true,
      "inputs": [],
      "name": "requiredSignatures",
      "outputs": [
        {
          "name": "",
          "type": "uint256"
        }
      ],
      "payable": false,
      "stateMutability": "view",
      "type": "function"
    },
    {
      "constant": true,
      "inputs": [],
      "name": "owner",
      "outputs": [
        {
          "name": "",
          "type": "address"
        }
      ],
      "payable": false,
      "stateMutability": "view",
      "type": "function"
    },
    {
      "constant": true,
      "inputs": [
        {
          "name": "_message",
          "type": "bytes32"
        }
      ],
      "name": "messagesSigned",
      "outputs": [
        {
          "name": "",
          "type": "bool"
        }
      ],
      "payable": false,
      "stateMutability": "view",
      "type": "function"
    },
    {
      "constant": false,
      "inputs": [
        {
          "name": "_contract",
          "type": "address"
        },
        {
          "name": "_data",
          "type": "bytes"
        },
        {
          "name": "_gas",
          "type": "uint256"
        }
      ],
      "name": "requireToConfirmMessage",
      "outputs": [
        {
          "name": "",
          "type": "bytes32"
        }
      ],
      "payable": false,
      "stateMutability": "nonpayable",
      "type": "function"
    },
    {
      "constant": true,
      "inputs": [],
      "name": "validatorContract",
      "outputs": [
        {
          "name": "",
          "type": "address"
        }
      ],
      "payable": false,
      "stateMutability": "view",
      "type": "function"
    },
    {
      "constant": true,
      "inputs": [],
      "name": "deployedAtBlock",
      "outputs": [
        {
          "name": "",
          "type": "uint256"
        }
      ],
      "payable": false,
      "stateMutability": "view",
      "type": "function"
    },
    {
      "constant": true,
      "inputs": [],
      "name": "getBridgeInterfacesVersion",
      "outputs": [
        {
          "name": "major",
          "type": "uint64"
        },
        {
          "name": "minor",
          "type": "uint64"
        },
        {
          "name": "patch",
          "type": "uint64"
        }
      ],
      "payable": false,
      "stateMutability": "pure",
      "type": "function"
    },
    {
      "constant": true,
      "inputs": [],
      "name": "messageSourceChainId",
      "outputs": [
        {
          "name": "id",
          "type": "uint256"
        }
      ],
      "payable": false,
      "stateMutability": "view",
      "type": "function"
    },
    {
      "constant": false,
      "inputs": [
        {
          "name": "_blockConfirmations",
          "type": "uint256"
        }
      ],
      "name": "setRequiredBlockConfirmations",
      "outputs": [],
      "payable": false,
      "stateMutability": "nonpayable",
      "type": "function"
    },
    {
      "constant": true,
      "inputs": [],
      "name": "destinationChainId",
      "outputs": [
        {
          "name": "",
          "type": "uint256"
        }
      ],
      "payable": false,
      "stateMutability": "view",
      "type": "function"
    },
    {
      "constant": false,
      "inputs": [
        {
          "name": "_gasPrice",
          "type": "uint256"
        }
      ],
      "name": "setGasPrice",
      "outputs": [],
      "payable": false,
      "stateMutability": "nonpayable",
      "type": "function"
    },
    {
      "constant": false,
      "inputs": [
        {
          "name": "_enable",
          "type": "bool"
        }
      ],
      "name": "setAllowReentrantRequests",
      "outputs": [],
      "payable": false,
      "stateMutability": "nonpayable",
      "type": "function"
    },
    {
      "constant": false,
      "inputs": [
        {
          "name": "_requestSelector",
          "type": "bytes32"
        },
        {
          "name": "_enable",
          "type": "bool"
        }
      ],
      "name": "enableAsyncRequestSelector",
      "outputs": [],
      "payable": false,
      "stateMutability": "nonpayable",
      "type": "function"
    },
    {
      "constant": true,
      "inputs": [
        {
          "name": "_messageId",
          "type": "bytes32"
        }
      ],
      "name": "messageCallStatus",
      "outputs": [
        {
          "name": "",
          "type": "bool"
        }
      ],
      "payable": false,
      "stateMutability": "view",
      "type": "function"
    },
    {
      "constant": true,
      "inputs": [],
      "name": "messageSender",
      "outputs": [
        {
          "name": "sender",
          "type": "address"
        }
      ],
      "payable": false,
      "stateMutability": "view",
      "type": "function"
    },
    {
      "constant": true,
      "inputs": [],
      "name": "decimalShift",
      "outputs": [
        {
          "name": "",
          "type": "int256"
        }
      ],
      "payable": false,
      "stateMutability": "view",
      "type": "function"
    },
    {
      "constant": false,
      "inputs": [
        {
          "name": "_contract",
          "type": "address"
        },
        {
          "name": "_data",
          "type": "bytes"
        },
        {
          "name": "_gas",
          "type": "uint256"
        }
      ],
      "name": "requireToPassMessage",
      "outputs": [
        {
          "name": "",
          "type": "bytes32"
        }
      ],
      "payable": false,
      "stateMutability": "nonpayable",
      "type": "function"
    },
    {
      "constant": true,
      "inputs": [
        {
          "name": "_messageId",
          "type": "bytes32"
        }
      ],
      "name": "failedMessageDataHash",
      "outputs": [
        {
          "name": "",
          "type": "bytes32"
        }
      ],
      "payable": false,
      "stateMutability": "view",
      "type": "function"
    },
    {
      "constant": true,
      "inputs": [],
      "name": "maxGasPerTx",
      "outputs": [
        {
          "name": "",
          "type": "uint256"
        }
      ],
      "payable": false,
      "stateMutability": "view",
      "type": "function"
    },
    {
      "constant": false,
      "inputs": [
        {
          "name": "message",
          "type": "bytes"
        }
      ],
      "name": "executeAffirmation",
      "outputs": [],
      "payable": false,
      "stateMutability": "nonpayable",
      "type": "function"
    },
    {
      "constant": false,
      "inputs": [
        {
          "name": "newOwner",
          "type": "address"
        }
      ],
      "name": "transferOwnership",
      "outputs": [],
      "payable": false,
      "stateMutability": "nonpayable",
      "type": "function"
    },
    {
      "constant": true,
      "inputs": [
        {
          "name": "_requestSelector",
          "type": "bytes32"
        }
      ],
      "name": "isAsyncRequestSelectorEnabled",
      "outputs": [
        {
          "name": "",
          "type": "bool"
        }
      ],
      "payable": false,
      "stateMutability": "view",
      "type": "function"
    },
    {
      "constant": true,
      "inputs": [],
      "name": "gasPrice",
      "outputs": [
        {
          "name": "",
          "type": "uint256"
        }
      ],
      "payable": false,
      "stateMutability": "view",
      "type": "function"
    },
    {
      "constant": true,
      "inputs": [
        {
          "name": "_number",
          "type": "uint256"
        }
      ],
      "name": "isAlreadyProcessed",
      "outputs": [
        {
          "name": "",
          "type": "bool"
        }
      ],
      "payable": false,
      "stateMutability": "pure",
      "type": "function"
    },
    {
      "anonymous": false,
      "inputs": [
        {
          "indexed": true,
          "name": "messageId",
          "type": "bytes32"
        },
        {
          "indexed": false,
          "name": "encodedData",
          "type": "bytes"
        }
      ],
      "name": "UserRequestForSignature",
      "type": "event"
    },
    {
      "anonymous": false,
      "inputs": [
        {
          "indexed": true,
          "name": "sender",
          "type": "address"
        },
        {
          "indexed": true,
          "name": "executor",
          "type": "address"
        },
        {
          "indexed": true,
          "name": "messageId",
          "type": "bytes32"
        },
        {
          "indexed": false,
          "name": "status",
          "type": "bool"
        }
      ],
      "name": "AffirmationCompleted",
      "type": "event"
    },
    {
      "anonymous": false,
      "inputs": [
        {
          "indexed": true,
          "name": "messageId",
          "type": "bytes32"
        },
        {
          "indexed": true,
          "name": "requestSelector",
          "type": "bytes32"
        },
        {
          "indexed": true,
          "name": "sender",
          "type": "address"
        },
        {
          "indexed": false,
          "name": "data",
          "type": "bytes"
        }
      ],
      "name": "UserRequestForInformation",
      "type": "event"
    },
    {
      "anonymous": false,
      "inputs": [
        {
          "indexed": true,
          "name": "signer",
          "type": "address"
        },
        {
          "indexed": true,
          "name": "messageId",
          "type": "bytes32"
        }
      ],
      "name": "SignedForInformation",
      "type": "event"
    },
    {
      "anonymous": false,
      "inputs": [
        {
          "indexed": true,
          "name": "messageId",
          "type": "bytes32"
        },
        {
          "indexed": false,
          "name": "status",
          "type": "bool"
        },
        {
          "indexed": false,
          "name": "callbackStatus",
          "type": "bool"
        }
      ],
      "name": "InformationRetrieved",
      "type": "event"
    },
    {
      "anonymous": false,
      "inputs": [
        {
          "indexed": true,
          "name": "requestSelector",
          "type": "bytes32"
        },
        {
          "indexed": false,
          "name": "enable",
          "type": "bool"
        }
      ],
      "name": "EnabledAsyncRequestSelector",
      "type": "event"
    },
    {
      "anonymous": false,
      "inputs": [
        {
          "indexed": true,
          "name": "signer",
          "type": "address"
        },
        {
          "indexed": false,
          "name": "messageHash",
          "type": "bytes32"
        }
      ],
      "name": "SignedForUserRequest",
      "type": "event"
    },
    {
      "anonymous": false,
      "inputs": [
        {
          "indexed": true,
          "name": "signer",
          "type": "address"
        },
        {
          "indexed": false,
          "name": "messageHash",
          "type": "bytes32"
        }
      ],
      "name": "SignedForAffirmation",
      "type": "event"
    },
    {
      "anonymous": false,
      "inputs": [
        {
          "indexed": false,
          "name": "authorityResponsibleForRelay",
          "type": "address"
        },
        {
          "indexed": false,
          "name": "messageHash",
          "type": "bytes32"
        },
        {
          "indexed": false,
          "name": "NumberOfCollectedSignatures",
          "type": "uint256"
        }
      ],
      "name": "CollectedSignatures",
      "type": "event"
    },
    {
      "anonymous": false,
      "inputs": [
        {
          "indexed": false,
          "name": "gasPrice",
          "type": "uint256"
        }
      ],
      "name": "GasPriceChanged",
      "type": "event"
    },
    {
      "anonymous": false,
      "inputs": [
        {
          "indexed": false,
          "name": "requiredBlockConfirmations",
          "type": "uint256"
        }
      ],
      "name": "RequiredBlockConfirmationChanged",
      "type": "event"
    },
    {
      "anonymous": false,
      "inputs": [
        {
          "indexed": false,
          "name": "previousOwner",
          "type": "address"
        },
        {
          "indexed": false,
          "name": "newOwner",
          "type": "address"
        }
      ],
      "name": "OwnershipTransferred",
      "type": "event"
    }
  ],
  "bytecode": "0x608060405234801561001057600080fd5b50614353806100206000396000f30060806040526004361061020b5763ffffffff60e060020a6000350416630ac1c31381146102105780630cbf0601146102375780630f08d4d01461024f5780631544298e1461027b5780631812d9961461029057806325fbf4ee14610320578063392e53cd1461036d5780633f0a9f65146103825780633f9a8e7e14610397578063437764df146103cb578063467ad35a14610412578063490a32c61461042d5780634a610b04146104455780634d4cb7a21461045d578063525ea93714610472578063630cea8e14610496578063669f618b146104c257806369ffa08a146104d75780636ae1a976146104fe5780637698da24146105165780637bac29c71461052e5780638d068043146105465780638da5cb5b1461055b5780638f4b4b981461057057806394643f711461058857806399439089146105f15780639a454b99146106065780639cb7595a1461061b5780639e307dff1461065c578063acf5c68914610671578063b075061114610689578063bf1fe4201461069e578063c2231ad2146106b6578063c29b1e8a146106d0578063cb08a10c146106ed578063d67bdd2514610705578063dae5f0fd1461071a578063dc8601b31461072f578063e37c328914610798578063e5789d03146107b0578063e7a2c01f146107c5578063f2fde38b146107e5578063fb67e77914610806578063fe173b971461081e578063ffd19e8c14610833575b600080fd5b34801561021c57600080fd5b5061022561084b565b60408051918252519081900360200190f35b34801561024357600080fd5b5061022560043561085b565b34801561025b57600080fd5b50610279600480359060248035151591604435918201910135610920565b005b34801561028757600080fd5b50610225610d54565b34801561029c57600080fd5b506102ab600435602435610da2565b6040805160208082528351818301528351919283929083019185019080838360005b838110156102e55781810151838201526020016102cd565b50505050905090810190601f1680156103125780820380516001836020036101000a031916815260200191505b509250505060405180910390f35b34801561032c57600080fd5b50610359600435602435600160a060020a03604435811690606435906084359060a4359060c43516610f7f565b604080519115158252519081900360200190f35b34801561037957600080fd5b506103596111f3565b34801561038e57600080fd5b50610225611244565b3480156103a357600080fd5b506103af600435611292565b60408051600160a060020a039092168252519081900360200190f35b3480156103d757600080fd5b506103e0611361565b604080517bffffffffffffffffffffffffffffffffffffffffffffffffffffffff199092168252519081900360200190f35b34801561041e57600080fd5b50610279600435602435611385565b34801561043957600080fd5b506102ab6004356113af565b34801561045157600080fd5b506103af6004356113c0565b34801561046957600080fd5b50610359611444565b34801561047e57600080fd5b50610225600480359060248035908101910135611495565b3480156104a257600080fd5b50610279602460048035828101929082013591813591820191013561155d565b3480156104ce57600080fd5b50610225611989565b3480156104e357600080fd5b50610279600160a060020a03600435811690602435166119ae565b34801561050a57600080fd5b50610225600435611a36565b34801561052257600080fd5b50610359600435611ab9565b34801561053a57600080fd5b50610279600435611b82565b34801561055257600080fd5b50610225611beb565b34801561056757600080fd5b506103af611c63565b34801561057c57600080fd5b50610359600435611cba565b34801561059457600080fd5b5060408051602060046024803582810135601f8101859004850286018501909652858552610225958335600160a060020a03169536956044949193909101919081908401838280828437509497505093359450611d3e9350505050565b3480156105fd57600080fd5b506103af611d55565b34801561061257600080fd5b50610225611dac565b34801561062757600080fd5b50610630611dfa565b6040805167ffffffffffffffff9485168152928416602084015292168183015290519081900360600190f35b34801561066857600080fd5b50610225611e05565b34801561067d57600080fd5b50610279600435611e2a565b34801561069557600080fd5b50610225611e52565b3480156106aa57600080fd5b50610279600435611ea0565b3480156106c257600080fd5b506102796004351515611ec5565b3480156106dc57600080fd5b506102796004356024351515611f3c565b3480156106f957600080fd5b50610359600435612060565b34801561071157600080fd5b506103af6120e4565b34801561072657600080fd5b50610225612109565b34801561073b57600080fd5b5060408051602060046024803582810135601f8101859004850286018501909652858552610225958335600160a060020a031695369560449491939091019190819084018382808284375094975050933594506121579350505050565b3480156107a457600080fd5b50610225600435612166565b3480156107bc57600080fd5b506102256121e9565b3480156107d157600080fd5b506102796004803560248101910135612237565b3480156107f157600080fd5b50610279600160a060020a03600435166124be565b34801561081257600080fd5b506103596004356124e3565b34801561082a57600080fd5b50610225612567565b34801561083f57600080fd5b506103596004356125b5565b6000610855611989565b90505b90565b60008060008360405160200180807f6e756d4d657373616765735369676e656400000000000000000000000000000081525060110182600019166000191681526020019150506040516020818303038152906040526040518082805190602001908083835b602083106108df5780518252601f1990920191602091820191016108c0565b51815160209384036101000a600019018019909216911617905260408051929094018290039091208652850195909552929092016000205495945050505050565b6000806000806060600080610933611d55565b600160a060020a031663facd743b336040518263ffffffff1660e060020a0281526004018082600160a060020a0316600160a060020a03168152602001915050602060405180830381600087803b15801561098d57600080fd5b505af11580156109a1573d6000803e3d6000fd5b505050506040513d60208110156109b757600080fd5b505115156109c457600080fd5b8a8a8a8a604051602001808560001916600019168152602001841515151560f860020a02815260010183838082843782019150509450505050506040516020818303038152906040526040518082805190602001908083835b60208310610a3c5780518252601f199092019160209182019101610a1d565b51815160209384036101000a600019018019909216911617905260408051929094018290038220336c0100000000000000000000000002838301526034808401829052855180850390910181526054909301948590528251909d509195509293508392850191508083835b60208310610ac65780518252601f199092019160209182019101610aa7565b6001836020036101000a03801982511681845116808217855250505050505090500191505060405180910390209550610afe86611ab9565b15610b0857600080fd5b610b138660016125dd565b610b1c87611a36565b9450610b27856125b5565b15610b3157600080fd5b846001019450610b4187866126af565b6040518b9033907fa8430f88dd0556970a712fd927c7d52ff7ed1256e9c8ee3aa291cd3d6eb8205f90600090a3610b76611beb565b8510610d4757610b8e87610b8987612774565b6126af565b610b978b612799565b604051602481018d81528c15156044830152606060648301908152608483018c90529296507ff534de5b00000000000000000000000000000000000000000000000000000000928e928e928e928e9260a401848480828437820191505095505050505050604051602081830303815290604052907bffffffffffffffffffffffffffffffffffffffffffffffffffffffff19166020820180517bffffffffffffffffffffffffffffffffffffffffffffffffffffffff83818316178352505050509250610c626121e9565b91508160405a603f02811515610c7457fe5b0411610c7f57600080fd5b83600160a060020a0316828460405180828051906020019080838360005b83811015610cb5578181015183820152602001610c9d565b50505050905090810190601f168015610ce25780820380516001836020036101000a031916815260200191505b5091505060006040518083038160008787f19250505090508a600019167f11c068ae71d815e1839c207016edea79bf33158bd1f50d34e79b0c5aaf52367b8b836040518083151515158152602001821515151581526020019250505060405180910390a25b5050505050505050505050565b7f67d6f42a1ed69c62022f2d160ddc6f2f0acd37ad1db0c24f4702d7d3343a4add60009081526020527ff6c66672b1a9fe5622677597b0da8fd180a2c85696efbcf7fe4b1e0f4f0f61085490565b604080516020808201859052818301849052825180830384018152606092830193849052805192936000939192909182918401908083835b60208310610df95780518252601f199092019160209182019101610dda565b51815160209384036101000a6000190180199092169116179052604080519290940182900382207f7369676e6174757265730000000000000000000000000000000000000000000083830152602a80840182905285518085039091018152604a9093019485905282519097506003965060009550919392508291908401908083835b60208310610e9a5780518252601f199092019160209182019101610e7b565b6001836020036101000a0380198251168184511680821785525050505050509050019150506040518091039020600019166000191681526020019081526020016000208054600181600116156101000203166002900480601f016020809104026020016040519081016040528092919081815260200182805460018160011615610100020316600290048015610f715780601f10610f4657610100808354040283529160200191610f71565b820191906000526020600020905b815481529060010190602001808311610f5457829003601f168201915b505050505091505092915050565b60408051600481526024810182526020810180517bffffffffffffffffffffffffffffffffffffffffffffffffffffffff167f6fde8202000000000000000000000000000000000000000000000000000000001781529151815160009330939291829190808383895b83811015611000578181015183820152602001610fe8565b50505050905090810190601f16801561102d5780820380516001836020036101000a031916815260200191505b509150506000604051808303816000865af191505015806110bf575030600160a060020a0316636fde82026040518163ffffffff1660e060020a028152600401602060405180830381600087803b15801561108757600080fd5b505af115801561109b573d6000803e3d6000fd5b505050506040513d60208110156110b157600080fd5b5051600160a060020a031633145b806110c957503330145b15156110d457600080fd5b6110dc6111f3565b156110e657600080fd5b6110ef866128a0565b15156110fa57600080fd5b61110488886128a8565b7fab54f3fbbe62c59b7876a9bf9bd5e0c22dbae93f4d8ee0438f7ce62b198eb0e0805473ffffffffffffffffffffffffffffffffffffffff1916600160a060020a03881617905560006020819052437fe66bef0282a446f9848e2903380099bb6e431483ee78778868f33b4a154c818b557f2670ecc91ec356e32067fd27b36614132d727b84a1e03e08f412a4f2cf07597490527f3d7fe2ee9790702383ef0118b516833ef2542132d3ca4ac6c77f62f1230fa6108590556111c5846129f8565b6111ce83612a7e565b6111d782612b11565b6111df612be8565b6111e76111f3565b98975050505050505050565b7f0a6f646cd611241d8073675e00d1a1ff700fbf1b53fcf473de56d1e6e4b714ba60005260046020527f078d888f9b66f3f8bfa10909e31f1e16240db73449f0500afdbbe3a70da457cc5460ff1690565b7f916daedf6915000ff68ced2f0b6773fe6f2582237f92c3c95bb4d7940723007160009081526020527fd2ea0feb732edb0ffe32efd33a6b9d24d46b16eb34a4d07ce256537b6f131e425490565b6000600260008360405160200180807f6661696c65644d6573736167655265636569766572000000000000000000000081525060150182600019166000191681526020019150506040516020818303038152906040526040518082805190602001908083835b602083106113175780518252601f1990920191602091820191016112f8565b51815160209384036101000a6000190180199092169116179052604080519290940182900390912086528501959095529290920160002054600160a060020a031695945050505050565b7f2544fbb90000000000000000000000000000000000000000000000000000000090565b61138d611c63565b600160a060020a031633146113a157600080fd5b6113ab82826128a8565b5050565b60606113ba82612c3f565b92915050565b6000600260008360405160200180807f6661696c65644d65737361676553656e646572000000000000000000000000008152506013018260001916600019168152602001915050604051602081830303815290604052604051808280519060200190808383602083106113175780518252601f1990920191602091820191016112f8565b7fffa3a5a0e192028fc343362a39c5688e5a60819a4dc5ab3ee70c25bc25b78dd660005260046020527f265a43ea29ede07170a30cb6d77d0ab5810eee752b72432f7be348bde74aa08f5460ff1690565b600080806114a1611989565b14806114b057506114b0611444565b15156114bb57600080fd5b6114c4336128a0565b15156114cf57600080fd5b6114d8856124e3565b15156114e357600080fd5b6114f36114ee610d54565b612da7565b90506114ff8133612eaa565b60408051602080825281018590523391879184917f72220b25ff596f7113b4015af206e306c4964f58f99f01d3f439dd35575f998f9189918991908190810184848082843760405192018290039550909350505050a4949350505050565b600080600080600061156d611d55565b600160a060020a031663facd743b336040518263ffffffff1660e060020a0281526004018082600160a060020a0316600160a060020a03168152602001915050602060405180830381600087803b1580156115c757600080fd5b505af11580156115db573d6000803e3d6000fd5b505050506040513d60208110156115f157600080fd5b505115156115fe57600080fd5b61166889898080601f0160208091040260200160405190810160405280939291908181526020018383808284375050604080516020601f8f018190048102820181019092528d815294508d93508c925082915084018382808284375060019450612f989350505050565b600160a060020a0316331461167c57600080fd5b8686604051602001808383808284378201915050925050506040516020818303038152906040526040518082805190602001908083835b602083106116d25780518252601f1990920191602091820191016116b3565b51815160209384036101000a600019018019909216911617905260408051929094018290038220336c0100000000000000000000000002838301526034808401829052855180850390910181526054909301948590528251909b509195509293508392850191508083835b6020831061175c5780518252601f19909201916020918201910161173d565b6001836020036101000a038019825116818451168082178552505050505050905001915050604051809103902093506117948561085b565b925061179f836125b5565b156117a957600080fd5b6001928301928311156117ce576117bf84611cba565b156117c957600080fd5b611808565b6118088588888080601f01602080910402602001604051908101604052809392919081815260200183838082843750613097945050505050565b61181384600161316e565b8461182584600163ffffffff6131f116565b604080516020808201949094528082019290925280518083038201815260609092019081905281519192909182918401908083835b602083106118795780518252601f19909201916020918201910161185a565b51815160209384036101000a600019018019909216911617905260408051929094018290038220601f8f018290048202830182019094528d82529296506118da9450869350918d91508c908190840183828082843750613203945050505050565b6118e48584613286565b60408051868152905133917fbf06885f40778f5ccfb64497d3f92ce568ddaedb7e2fb4487f72690418cf8e4c919081900360200190a2611922611beb565b905080831061197e5761193d8561193885612774565b613286565b604080513381526020810187905280820183905290517f415557404d88a0c0b8e3b16967cafffc511213fd9c465c16832ee17ed57d72379181900360600190a15b505050505050505050565b7fe34bb2103dc34f2c144cc216c132d6ffb55dac57575c22e089161bbe650833045490565b30600160a060020a0316636fde82026040518163ffffffff1660e060020a028152600401602060405180830381600087803b1580156119ec57600080fd5b505af1158015611a00573d6000803e3d6000fd5b505050506040513d6020811015611a1657600080fd5b5051600160a060020a03163314611a2c57600080fd5b6113ab8282613308565b60008060008360405160200180807f6e756d41666669726d6174696f6e735369676e656400000000000000000000008152506015018260001916600019168152602001915050604051602081830303815290604052604051808280519060200190808383602083106108df5780518252601f1990920191602091820191016108c0565b6000600460008360405160200180807f61666669726d6174696f6e735369676e6564000000000000000000000000000081525060120182600019166000191681526020019150506040516020818303038152906040526040518082805190602001908083835b60208310611b3e5780518252601f199092019160209182019101611b1f565b51815160209384036101000a600019018019909216911617905260408051929094018290039091208652850195909552929092016000205460ff1695945050505050565b611b8a611c63565b600160a060020a03163314611b9e57600080fd5b7f2670ecc91ec356e32067fd27b36614132d727b84a1e03e08f412a4f2cf07597460009081526020527f3d7fe2ee9790702383ef0118b516833ef2542132d3ca4ac6c77f62f1230fa61055565b6000611bf5611d55565b600160a060020a0316638d0680436040518163ffffffff1660e060020a028152600401602060405180830381600087803b158015611c3257600080fd5b505af1158015611c46573d6000803e3d6000fd5b505050506040513d6020811015611c5c57600080fd5b5051905090565b7f02016836a56b71f0d02689e69e326f4f4c1b9057164ef592671cf0d37c8040c060005260026020527fb7802e97e87ef2842a6cce7da7ffaeaedaa2f61a6a7870b23d9d01fc9b73712e54600160a060020a031690565b6000600460008360405160200180807f6d657373616765735369676e6564000000000000000000000000000000000000815250600e01826000191660001916815260200191505060405160208183030381529060405260405180828051906020019080838360208310611b3e5780518252601f199092019160209182019101611b1f565b6000611d4d8484846080613346565b949350505050565b7f5a74bb7e202fb8e4bf311841c7d64ec19df195fee77d7e7ae749b27921b6ddfe60005260026020527fab54f3fbbe62c59b7876a9bf9bd5e0c22dbae93f4d8ee0438f7ce62b198eb0e054600160a060020a031690565b7fb120ceec05576ad0c710bc6e85f1768535e27554458f05dcbb5c65b8c7a749b060009081526020527fe66bef0282a446f9848e2903380099bb6e431483ee78778868f33b4a154c818b5490565b600660026000909192565b7f7f0fcd9e49860f055dd0c1682d635d309ecb5e3011654c716d9eb59a7ddec7d25490565b611e32611c63565b600160a060020a03163314611e4657600080fd5b611e4f81612a7e565b50565b7fbbd454018e72a3f6c02bbd785bacc49e46292744f3f6761276723823aa33232060009081526020527f242329173dfc316001df0a0c3d5a8f58a7ffb1a8b7d99c268303b9a741bacdf95490565b611ea8611c63565b600160a060020a03163314611ebc57600080fd5b611e4f816129f8565b611ecd611c63565b600160a060020a03163314611ee157600080fd5b7fffa3a5a0e192028fc343362a39c5688e5a60819a4dc5ab3ee70c25bc25b78dd660005260046020527f265a43ea29ede07170a30cb6d77d0ab5810eee752b72432f7be348bde74aa08f805460ff1916911515919091179055565b611f44611c63565b600160a060020a03163314611f5857600080fd5b80600460008460405160200180807f656e61626c655265717565737453656c6563746f72000000000000000000000081525060150182600019166000191681526020019150506040516020818303038152906040526040518082805190602001908083835b60208310611fdc5780518252601f199092019160209182019101611fbd565b51815160209384036101000a6000190180199092169116179052604080519290940182900390912086528581019690965250928301600020805460ff191695151595909517909455508051841515815290518593507f0c6e335700063e42c344f1ce5a16fdc748318fa807af05984827f33946d93c4e929181900390910190a25050565b6000600460008360405160200180807f6d65737361676543616c6c537461747573000000000000000000000000000000815250601101826000191660001916815260200191505060405160208183030381529060405260405180828051906020019080838360208310611b3e5780518252601f199092019160209182019101611b1f565b7f7b58b2a669d8e0992eae9eaef641092c0f686fd31070e7236865557fa1571b5b5490565b7f1e8ecaafaddea96ed9ac6d2642dcdfe1bebe58a930b1085842d8fc122b371ee560009081526020527fd5c78dd9468716ca9bb96be25d56436811b20aab3523a9904b12deef1cab239d5490565b6000611d4d8484846000613346565b60008060008360405160200180807f6661696c65644d657373616765446174614861736800000000000000000000008152506015018260001916600019168152602001915050604051602081830303815290604052604051808280519060200190808383602083106108df5780518252601f1990920191602091820191016108c0565b7f2670ecc91ec356e32067fd27b36614132d727b84a1e03e08f412a4f2cf07597460009081526020527f3d7fe2ee9790702383ef0118b516833ef2542132d3ca4ac6c77f62f1230fa6105490565b6000806000612244611d55565b600160a060020a031663facd743b336040518263ffffffff1660e060020a0281526004018082600160a060020a0316600160a060020a03168152602001915050602060405180830381600087803b15801561229e57600080fd5b505af11580156122b2573d6000803e3d6000fd5b505050506040513d60208110156122c857600080fd5b505115156122d557600080fd5b8484604051602001808383808284378201915050925050506040516020818303038152906040526040518082805190602001908083835b6020831061232b5780518252601f19909201916020918201910161230c565b51815160209384036101000a600019018019909216911617905260408051929094018290038220336c01000000000000000000000000028383015260348084018290528551808503909101815260549093019485905282519099509195509293508392850191508083835b602083106123b55780518252601f199092019160209182019101612396565b6001836020036101000a038019825116818451168082178552505050505050905001915050604051809103902091506123ed82611ab9565b156123f757600080fd5b6124028260016125dd565b61240b83611a36565b9050612416816125b5565b1561242057600080fd5b60010161242d83826126af565b60408051848152905133917f5df9cc3eb93d8a9a481857a3b70a8ca966e6b80b25cf0ee2cce180ec5afa80a1919081900360200190a261246b611beb565b81106124b75761247e83610b8983612774565b6124b785858080601f016020809104026020016040519081016040528093929190818152602001838380828437506134cc945050505050565b5050505050565b6124c6611c63565b600160a060020a031633146124da57600080fd5b611e4f81612b11565b6000600460008360405160200180807f656e61626c655265717565737453656c6563746f720000000000000000000000815250601501826000191660001916815260200191505060405160208183030381529060405260405180828051906020019080838360208310611b3e5780518252601f199092019160209182019101611b1f565b7f55b3774520b5993024893d303890baa4e84b1244a43c60034d1ced2d3cf2b04b60009081526020527ff7d5eefab3776d7f0450bd0193564bcb4f832ce313ff2836c450fc63a4b944195490565b7f80000000000000000000000000000000000000000000000000000000000000009081161490565b80600460008460405160200180807f61666669726d6174696f6e735369676e6564000000000000000000000000000081525060120182600019166000191681526020019150506040516020818303038152906040526040518082805190602001908083835b602083106126615780518252601f199092019160209182019101612642565b51815160209384036101000a60001901801990921691161790526040805192909401829003909120865285019590955292909201600020805460ff1916941515949094179093555050505050565b806000808460405160200180807f6e756d41666669726d6174696f6e735369676e6564000000000000000000000081525060150182600019166000191681526020019150506040516020818303038152906040526040518082805190602001908083835b602083106127325780518252601f199092019160209182019101612713565b51815160209384036101000a60001901801990921691161790526040805192909401829003909120865285019590955292909201600020939093555050505050565b7f80000000000000000000000000000000000000000000000000000000000000001790565b60008060008360405160200180807f6173796e6353656e646572000000000000000000000000000000000000000000815250600b0182600019166000191681526020019150506040516020818303038152906040526040518082805190602001908083835b6020831061281d5780518252601f1990920191602091820191016127fe565b51815160209384036101000a60001901801990921691161790526040805192909401829003909120600081815260029092529290205491955050600160a060020a03169250505080151561287057600080fd5b600091825260026020526040909120805473ffffffffffffffffffffffffffffffffffffffff1916905592915050565b6000903b1190565b6000806000806000861180156128be5750600085115b15156128c957600080fd5b858514156128d657600080fd5b506000925082915060ff905060015b8315806128f0575082155b156129385783158015612904575085828716145b1561290d578093505b8215801561291c575084828616145b15612925578092505b6101009190910260ff17906001016128e5565b5050600060208190527ff6c66672b1a9fe5622677597b0da8fd180a2c85696efbcf7fe4b1e0f4f0f6108949094557f2f30286a16f86ee067618e1a246990e40c07b7749418a6dd3133f9cfb7e814cc919091557f242329173dfc316001df0a0c3d5a8f58a7ffb1a8b7d99c268303b9a741bacdf9919091557ffb792ae4ad11102b93f26a51b3749c2b3667f8b561566a4806d49896928115949091527f7b62b32ff48350e85ce95b571fde6f8b1096bc44a26db769ad6d0b3a26bf1c6d55565b7f55b3774520b5993024893d303890baa4e84b1244a43c60034d1ced2d3cf2b04b600090815260209081527ff7d5eefab3776d7f0450bd0193564bcb4f832ce313ff2836c450fc63a4b944198290556040805183815290517f52264b89e0fceafb26e79fd49ef8a366eb6297483bf4035b027f0c99a7ad512e929181900390910190a150565b60008111612a8b57600080fd5b7f916daedf6915000ff68ced2f0b6773fe6f2582237f92c3c95bb4d79407230071600090815260209081527fd2ea0feb732edb0ffe32efd33a6b9d24d46b16eb34a4d07ce256537b6f131e428290556040805183815290517f4fb76205cd57c896b21511d2114137d8e901b4ccd659e1a0f97d6306795264fb929181900390910190a150565b600160a060020a0381161515612b2657600080fd5b7f8be0079c531659141344cd1fd0a4f28419497f9722a3daafe3b4186f6b6457e0612b4f611c63565b60408051600160a060020a03928316815291841660208301528051918290030190a17f02016836a56b71f0d02689e69e326f4f4c1b9057164ef592671cf0d37c8040c060005260026020527fb7802e97e87ef2842a6cce7da7ffaeaedaa2f61a6a7870b23d9d01fc9b73712e805473ffffffffffffffffffffffffffffffffffffffff1916600160a060020a0392909216919091179055565b7f0a6f646cd611241d8073675e00d1a1ff700fbf1b53fcf473de56d1e6e4b714ba60005260046020527f078d888f9b66f3f8bfa10909e31f1e16240db73449f0500afdbbe3a70da457cc805460ff19166001179055565b6060600360008360405160200180807f6d6573736167657300000000000000000000000000000000000000000000000081525060080182600019166000191681526020019150506040516020818303038152906040526040518082805190602001908083835b60208310612cc45780518252601f199092019160209182019101612ca5565b6001836020036101000a0380198251168184511680821785525050505050509050019150506040518091039020600019166000191681526020019081526020016000208054600181600116156101000203166002900480601f016020809104026020016040519081016040528092919081815260200182805460018160011615610100020316600290048015612d9b5780601f10612d7057610100808354040283529160200191612d9b565b820191906000526020600020905b815481529060010190602001808311612d7e57829003601f168201915b50505050509050919050565b6000806000612db461354b565b9150612dc282600101613599565b6040805160208082018790526c0100000000000000000000000030028284015282516034818403018152605490920192839052815191929182918401908083835b60208310612e225780518252601f199092019160209182019101612e03565b5181516000196020949094036101000a93909301928316921916919091179052604051920182900390912067ffffffffffffffff86167bffffffffffffffffffffffffffffffffffffffff00000000000000009091169081177e0500000000000000000000000000000000000000000000000000000000000017965093505050505050919050565b80600260008460405160200180807f6173796e6353656e646572000000000000000000000000000000000000000000815250600b0182600019166000191681526020019150506040516020818303038152906040526040518082805190602001908083835b60208310612f2e5780518252601f199092019160209182019101612f0f565b51815160209384036101000a60001901801990921691161790526040805192909401829003909120865285019590955292909201600020805473ffffffffffffffffffffffffffffffffffffffff1916600160a060020a0395909516949094179093555050505050565b60008060008086516041141515612fae57600080fd5b505050602084015160408501516060860151601b60ff60f860020a8304161480612fe15750601c60ff60f860020a830416145b1515612fec57600080fd5b7f7fffffffffffffffffffffffffffffff5d576e7357a4501ddfe92f46681b20a082111561301957600080fd5b600161302587876135f0565b60408051600080825260208083018085529490945260ff60f860020a870416828401526060820188905260808201879052915160a08083019493601f198301938390039091019190865af1158015613081573d6000803e3d6000fd5b5050604051601f19015198975050505050505050565b80600360008460405160200180807f6d6573736167657300000000000000000000000000000000000000000000000081525060080182600019166000191681526020019150506040516020818303038152906040526040518082805190602001908083835b6020831061311b5780518252601f1990920191602091820191016130fc565b51815160001960209485036101000a01908116901991909116179052604080519490920184900390932086528583019690965250929093016000208451613169959194509201919050614244565b505050565b80600460008460405160200180807f6d657373616765735369676e6564000000000000000000000000000000000000815250600e018260001916600019168152602001915050604051602081830303815290604052604051808280519060200190808383602083106126615780518252601f199092019160209182019101612642565b6000828211156131fd57fe5b50900390565b80600360008460405160200180807f7369676e61747572657300000000000000000000000000000000000000000000815250600a0182600019166000191681526020019150506040516020818303038152906040526040518082805190602001908083836020831061311b5780518252601f1990920191602091820191016130fc565b806000808460405160200180807f6e756d4d657373616765735369676e65640000000000000000000000000000008152506011018260001916600019168152602001915050604051602081830303815290604052604051808280519060200190808383602083106127325780518252601f199092019160209182019101612713565b80600160a060020a038116151561331e57600080fd5b600160a060020a038316151561333c576133378261380a565b613169565b6131698383613816565b6000808060608082613356611989565b14806133655750613365611444565b151561337057600080fd5b6064871015801561338857506133846121e9565b8711155b151561339357600080fd5b63ffffffff60048901511693508363a9059cbb141580156133b857508363095ea7b314155b80156133c85750836323b872dd14155b80156133d8575083634000aea014155b80156133e857508363cae9ca5114155b15156133f357600080fd5b6133fe8988886138c9565b9250925081886040516020018083805190602001908083835b602083106134365780518252601f199092019160209182019101613417565b51815160209384036101000a600019018019909216911617905285519190930192850191508083835b6020831061347e5780518252601f19909201916020918201910161345f565b6001836020036101000a0380198251168184511680821785525050505050509050019250505060405160208183030381529060405290506134bf838261397f565b5090979650505050505050565b60008060008060006134dc6142c2565b60606134e788613a1c565b959c50939a50919850965094509250905061350187613afc565b151561350c57600080fd5b602082015161351a90613b42565b151561352557600080fd5b61354186868963ffffffff881687876000602002015187613b54565b5050505050505050565b7f7ab1577440dd7bedf920cb6de2f9fc6bf7ba98c78c85a3fa1f8311aac95e175960009081526020527fa9b0f75b23e377b9b22d27feaca5d8a12329c0049ebce1dc695b905f3aa4cd005490565b7f7ab1577440dd7bedf920cb6de2f9fc6bf7ba98c78c85a3fa1f8311aac95e1759600090815260205267ffffffffffffffff167fa9b0f75b23e377b9b22d27feaca5d8a12329c0049ebce1dc695b905f3aa4cd0055565b60408051808201909152601a81527f19457468657265756d205369676e6564204d6573736167653a0a000000000000602082015260009060608315613796578161363a8651613ba1565b866040516020018084805190602001908083835b6020831061366d5780518252601f19909201916020918201910161364e565b51815160209384036101000a600019018019909216911617905286519190930192860191508083835b602083106136b55780518252601f199092019160209182019101613696565b51815160209384036101000a600019018019909216911617905285519190930192850191508083835b602083106136fd5780518252601f1990920191602091820191016136de565b6001836020036101000a03801982511681845116808217855250505050505090500193505050506040516020818303038152906040526040518082805190602001908083835b602083106137625780518252601f199092019160209182019101613743565b6001836020036101000a03801982511681845116808217855250505050505090500191505060405180910390209250613802565b6040805190810160405280600381526020017f313034000000000000000000000000000000000000000000000000000000000081525090508181866040516020018084805190602001908083836020831061366d5780518252601f19909201916020918201910161364e565b505092915050565b30316113ab8282613cac565b604080517f70a0823100000000000000000000000000000000000000000000000000000000815230600482015290518391600091600160a060020a038416916370a0823191602480830192602092919082900301818787803b15801561387b57600080fd5b505af115801561388f573d6000803e3d6000fd5b505050506040513d60208110156138a557600080fd5b505190506138c3600160a060020a038516848363ffffffff613d0d16565b50505050565b600060606000806000806138db610d54565b93506138e5613da2565b92506138ef611e52565b91506138f9613df0565b905061390484612da7565b95508083604f01016040519080825280601f01601f191660200182016040528015613939578160200160208202803883390190505b50945084518501828152848282035287604f87015281604e87015283604d87015288604c8701528960488701523360348701528660208701525050505050935093915050565b604080516020808252835181830152835185937f520d2afde79cbd5db58755ac9480f81bc658e5c517fcae7365a3d832590b01839386939092839283019185019080838360005b838110156139de5781810151838201526020016139c6565b50505050905090810190601f168015613a0b5780820380516001836020036101000a031916815260200191505b509250505060405180910390a25050565b6000806000806000613a2c6142c2565b6060600080604f915060208a01519850600160a060020a0360348b015116975060548a01518060601c975063ffffffff8160401c16965080601a1a95508060181a6001808260031b1b03818501945080858e01511687528260191a91506001808360031b1b039050818501945080858e0151166020880152848d51039350505050806040519080825280601f01601f191660200182016040528015613adb578160200160208202803883390190505b50925060248201915080826004350160208501375050919395979092949650565b7bffffffffffffffffffffffffffffffffffffffffffffffffffffffff1981167e0500000000000000000000000000000000000000000000000000000000000014919050565b6000613b4c610d54565b909114919050565b6000613b64888884888a88613e3e565b9050613b708682613f34565b801515613b9557613b818683613fb7565b613b8b8688614084565b613b958689614107565b6135418888888461418a565b60606000808281851515613bea5760408051808201909152600181527f300000000000000000000000000000000000000000000000000000000000000060208201529450613ca3565b8593505b8315613c0557600190920191600a84049350613bee565b826040519080825280601f01601f191660200182016040528015613c33578160200160208202803883390190505b5091505060001982015b8515613c9f57815160001982019160f860020a6030600a8a060102918491908110613c6457fe5b9060200101907effffffffffffffffffffffffffffffffffffffffffffffffffffffffffffff1916908160001a905350600a86049550613c3d565b8194505b50505050919050565b604051600160a060020a0383169082156108fc029083906000818181858888f1935050505015156113ab578082613ce16142dd565b600160a060020a039091168152604051908190036020019082f0801580156124b7573d6000803e3d6000fd5b82600160a060020a031663a9059cbb83836040518363ffffffff1660e060020a0281526004018083600160a060020a0316600160a060020a0316815260200182815260200192505050600060405180830381600087803b158015613d7057600080fd5b505af1158015613d84573d6000803e3d6000fd5b505050503d156131695760206000803e600051151561316957600080fd5b7fe504ae1fd6471eea80f18b8532a61a9bb91fba4f5b837f80a1cfb6752350af4460009081526020527f2f30286a16f86ee067618e1a246990e40c07b7749418a6dd3133f9cfb7e814cc5490565b7ffb792ae4ad11102b93f26a51b3749c2b3667f8b561566a4806d498969281159460009081526020527f7b62b32ff48350e85ce95b571fde6f8b1096bc44a26db769ad6d0b3a26bf1c6d5490565b600080613e4a886141d8565b613e53846141fc565b613e5c83614220565b8463ffffffff1480613e7c57508460405a603f02811515613e7957fe5b04115b1515613e8757600080fd5b86600160a060020a0316858760405180828051906020019080838360005b83811015613ebd578181015183820152602001613ea5565b50505050905090810190601f168015613eea5780820380516001836020036101000a031916815260200191505b5091505060006040518083038160008787f1925050509050613f0b81611e4f565b613f1560006141d8565b613f1f60006141fc565b613f296000614220565b979650505050505050565b80600460008460405160200180807f6d65737361676543616c6c5374617475730000000000000000000000000000008152506011018260001916600019168152602001915050604051602081830303815290604052604051808280519060200190808383602083106126615780518252601f199092019160209182019101612642565b806040518082805190602001908083835b60208310613fe75780518252601f199092019160209182019101613fc8565b51815160001960209485036101000a01908116901991909116179052604080519490920184900384207f6661696c65644d657373616765446174614861736800000000000000000000008583015260358086018a905283518087039091018152605590950192839052845190965060009550859493508291840190808383602083106127325780518252601f199092019160209182019101612713565b80600260008460405160200180807f6661696c65644d65737361676552656365697665720000000000000000000000815250601501826000191660001916815260200191505060405160208183030381529060405260405180828051906020019080838360208310612f2e5780518252601f199092019160209182019101612f0f565b80600260008460405160200180807f6661696c65644d65737361676553656e64657200000000000000000000000000815250601301826000191660001916815260200191505060405160208183030381529060405260405180828051906020019080838360208310612f2e5780518252601f199092019160209182019101612f0f565b60408051821515815290518391600160a060020a0380871692908816917fe194ef610f9150a2db4110b3db5116fd623175dca3528d7ae7046a1042f84fe7919081900360200190a450505050565b7f7b58b2a669d8e0992eae9eaef641092c0f686fd31070e7236865557fa1571b5b55565b7fe34bb2103dc34f2c144cc216c132d6ffb55dac57575c22e089161bbe6508330455565b7f7f0fcd9e49860f055dd0c1682d635d309ecb5e3011654c716d9eb59a7ddec7d255565b828054600181600116156101000203166002900490600052602060002090601f016020900481019282601f1061428557805160ff19168380011785556142b2565b828001600101855582156142b2579182015b828111156142b2578251825591602001919060010190614297565b506142be9291506142ec565b5090565b60408051808201825290600290829080388339509192915050565b60405160218061430783390190565b61085891905b808211156142be57600081556001016142f25600608060405260405160208060218339810160405251600160a060020a038116ff00a165627a7a723058206b7798d777a91fe47c890da127e7d42960d4fceba666dd2e1eac50b9319e75c10029",
  "source": "pragma solidity 0.4.24;\n\nimport \"./AsyncInformationProcessor.sol\";\n\ncontract HomeAMB is AsyncInformationProcessor {\n    event UserRequestForSignature(bytes32 indexed messageId, bytes encodedData);\n    event AffirmationCompleted(\n        address indexed sender,\n        address indexed executor,\n        bytes32 indexed messageId,\n        bool status\n    );\n\n    function emitEventOnMessageRequest(bytes32 messageId, bytes encodedData) internal {\n        emit UserRequestForSignature(messageId, encodedData);\n    }\n\n    function emitEventOnMessageProcessed(address sender, address executor, bytes32 messageId, bool status) internal {\n        emit AffirmationCompleted(sender, executor, messageId, status);\n    }\n}\n",
  "sourcePath": "/root/task/allen/tokenbridge-contracts/contracts/upgradeable_contracts/arbitrary_message/HomeAMB.sol",
  "compiler": {
    "name": "solc",
    "version": "0.4.24+commit.e67f0147.Emscripten.clang"
  },
  "schemaVersion": "3.4.0",
  "updatedAt": "2022-04-21T08:19:50.403Z",
  "devdoc": {
    "methods": {
      "allowReentrantRequests()": {
        "return": "true, if reentrant requests are allowed."
      },
      "claimTokens(address,address)": {
        "details": "Withdraws the erc20 tokens or native coins from this contract.",
        "params": {
          "_to": "address of the tokens/coins receiver.",
          "_token": "address of the claimed token or address(0) for native coins."
        }
      },
      "confirmInformation(bytes32,bool,bytes)": {
        "details": "Submits result of the async call. Only validators are allowed to call this method. Once enough confirmations are collected, callback function is called.",
        "params": {
          "_messageId": "unique id of the request that was previously made.",
          "_result": "call result returned by the other side of the bridge.",
          "_status": "true, if JSON-RPC request succeeded, false otherwise."
        }
      },
      "decimalShift()": {
        "details": "Returns the value of foreign-to-home decimal shift.",
        "return": "decimal shift."
      },
      "destinationChainId()": {
        "return": "chain id for the destination network"
      },
      "enableAsyncRequestSelector(bytes32,bool)": {
        "params": {
          "_enable": "true, if the selector should be allowed.",
          "_requestSelector": "selector for the async request."
        }
      },
      "failedMessageDataHash(bytes32)": {
        "details": "Returns a data hash of the failed message that came from the other side. NOTE: dataHash was used previously to identify outgoing message before AMB message id was introduced. It is kept for backwards compatibility with old mediators contracts.",
        "params": {
          "_messageId": "id of the message from the other side that triggered a call."
        },
        "return": "keccak256 hash of message data."
      },
      "failedMessageReceiver(bytes32)": {
        "details": "Returns a receiver address of the failed message that came from the other side.",
        "params": {
          "_messageId": "id of the message from the other side that triggered a call."
        },
        "return": "receiver address."
      },
      "failedMessageSender(bytes32)": {
        "details": "Returns a sender address of the failed message that came from the other side.",
        "params": {
          "_messageId": "id of the message from the other side that triggered a call."
        },
        "return": "sender address on the other side."
      },
      "getBridgeInterfacesVersion()": {
        "return": "(major, minor, patch) version triple"
      },
      "initialize(uint256,uint256,address,uint256,uint256,uint256,address)": {
        "params": {
          "_destinationChainId": "chain id of a network where all outgoing messages are directed",
          "_gasPrice": "default gas price used by oracles for sending transactions in this network",
          "_maxGasPerTx": "maximum amount of gas per one message execution",
          "_owner": "address of new bridge owner",
          "_requiredBlockConfirmations": "number of block confirmations oracle will wait before processing passed messages",
          "_sourceChainId": "chain id of a network where this contract is deployed",
          "_validatorContract": "address of the validators contract"
        }
      },
      "isAsyncRequestSelectorEnabled(bytes32)": {
        "params": {
          "_requestSelector": "selector for the async request."
        },
        "return": "true, if selector is allowed to be used."
      },
      "messageCallStatus(bytes32)": {
        "details": "Returns a status of the message that came from the other side.",
        "params": {
          "_messageId": "id of the message from the other side that triggered a call."
        },
        "return": "true if call executed successfully."
      },
      "messageId()": {
        "details": "Returns an id of the currently processed message.",
        "return": "id of the message that originated on the other side."
      },
      "messageSender()": {
        "details": "Returns an address of the sender on the other side for the currently processed message. Can be used by executors for getting other side caller address.",
        "return": "address of the sender on the other side."
      },
      "messageSourceChainId()": {
        "details": "Returns an originating chain id of the currently processed message.",
        "return": "source chain id of the message that originated on the other side."
      },
      "owner()": {
        "details": "Tells the address of the owner",
        "return": "the address of the owner"
      },
      "requireToConfirmMessage(address,bytes,uint256)": {
        "details": "Requests message relay to the opposite network, message is sent to the manual lane.",
        "params": {
          "_contract": "executor address on the other side.",
          "_data": "calldata passed to the executor on the other side.",
          "_gas": "gas limit used on the other network for executing a message."
        }
      },
      "requireToGetInformation(bytes32,bytes)": {
        "details": "Makes an asynchronous request to get information from the opposite network. Call result will be returned later to the callee, by using the onInformationReceived(bytes) callback function.",
        "params": {
          "_data": "payload for the given selector",
          "_requestSelector": "selector for the async request."
        }
      },
      "requireToPassMessage(address,bytes,uint256)": {
        "details": "Requests message relay to the opposite network",
        "params": {
          "_contract": "executor address on the other side",
          "_data": "calldata passed to the executor on the other side",
          "_gas": "gas limit used on the other network for executing a message"
        }
      },
      "setAllowReentrantRequests(bool)": {
        "params": {
          "_enable": "true, if reentrant requests are allowed."
        }
      },
      "setChainIds(uint256,uint256)": {
        "params": {
          "_destinationChainId": "chain id for opposite network",
          "_sourceChainId": "chain id for current network"
        }
      },
      "setGasPrice(uint256)": {
        "details": "Public setter for fallback gas price value. Only bridge owner can call this method.",
        "params": {
          "_gasPrice": "new value for the gas price."
        }
      },
      "sourceChainId()": {
        "return": "chain id for the current network"
      },
      "transactionHash()": {
        "details": "Returns an id of the currently processed message. NOTE: transactionHash was used previously to identify incoming message before AMB message id was introduced. It is kept for backwards compatibility with old mediators contracts, although it doesn't return txHash anymore.",
        "return": "id of the message that originated on the other side."
      },
      "transferOwnership(address)": {
        "details": "Allows the current owner to transfer control of the contract to a newOwner.",
        "params": {
          "newOwner": "the address to transfer ownership to."
        }
      }
    }
  },
  "userdoc": {
    "methods": {
      "allowReentrantRequests()": {
        "notice": "Tells if passing reentrant requests is allowed."
      },
      "destinationChainId()": {
        "notice": "Internal function for retrieving chain id for the destination network"
      },
      "enableAsyncRequestSelector(bytes32,bool)": {
        "notice": "Enables or disables the specific async request selector. Only owner can call this method."
      },
      "getBridgeInterfacesVersion()": {
        "notice": "Returns currently used bridge version"
      },
      "initialize(uint256,uint256,address,uint256,uint256,uint256,address)": {
        "notice": "Initializes AMB contract"
      },
      "isAsyncRequestSelectorEnabled(bytes32)": {
        "notice": "Tells if the specific async request selector is allowed to be used and supported by the bridge oracles."
      },
      "setAllowReentrantRequests(bool)": {
        "notice": "Sets the flag to allow passing new AMB requests in the opposite direction, while other AMB message is being processed. Only owner can call this method."
      },
      "setChainIds(uint256,uint256)": {
        "notice": "Updates chain ids of used networks"
      },
      "sourceChainId()": {
        "notice": "Internal function for retrieving chain id for the source network"
      }
    }
  }
}